{
  "_format": "hh-sol-artifact-1",
  "contractName": "Market",
  "sourceName": "contracts/Market.sol",
  "abi": [
    {
      "inputs": [],
      "stateMutability": "nonpayable",
      "type": "constructor"
    },
    {
      "anonymous": false,
      "inputs": [
        {
          "indexed": true,
          "internalType": "uint256",
          "name": "tokenId",
          "type": "uint256"
        },
        {
          "indexed": true,
          "internalType": "address",
          "name": "minter",
          "type": "address"
        },
        {
          "indexed": false,
          "internalType": "address",
          "name": "seller",
          "type": "address"
        },
        {
          "indexed": false,
          "internalType": "address",
          "name": "owner",
          "type": "address"
        },
        {
          "indexed": false,
          "internalType": "uint256",
          "name": "price",
          "type": "uint256"
        },
        {
          "indexed": false,
          "internalType": "bool",
          "name": "sold",
          "type": "bool"
        }
      ],
      "name": "NFT_MarketItem_Created",
      "type": "event"
    },
    {
      "anonymous": false,
      "inputs": [
        {
          "indexed": true,
          "internalType": "uint256",
          "name": "tokenId",
          "type": "uint256"
        },
        {
          "indexed": true,
          "internalType": "address",
          "name": "minter",
          "type": "address"
        },
        {
          "indexed": false,
          "internalType": "address",
          "name": "seller",
          "type": "address"
        },
        {
          "indexed": false,
          "internalType": "address",
          "name": "owner",
          "type": "address"
        },
        {
          "indexed": false,
          "internalType": "uint256",
          "name": "price",
          "type": "uint256"
        },
        {
          "indexed": false,
          "internalType": "uint256",
          "name": "supply",
          "type": "uint256"
        }
      ],
      "name": "sNFT_MarketItem_Created",
      "type": "event"
    },
    {
      "inputs": [
        {
          "internalType": "address",
          "name": "nftContract",
          "type": "address"
        },
        {
          "internalType": "string",
          "name": "tokenURI",
          "type": "string"
        },
        {
          "internalType": "uint256",
          "name": "amount",
          "type": "uint256"
        }
      ],
      "name": "createERC1155Token",
      "outputs": [
        {
          "internalType": "uint256",
          "name": "",
          "type": "uint256"
        }
      ],
      "stateMutability": "nonpayable",
      "type": "function"
    },
    {
      "inputs": [
        {
          "internalType": "address",
          "name": "nftContract",
          "type": "address"
        },
        {
          "internalType": "string",
          "name": "tokenURI",
          "type": "string"
        }
      ],
      "name": "createERC721Token",
      "outputs": [
        {
          "internalType": "uint256",
          "name": "",
          "type": "uint256"
        }
      ],
      "stateMutability": "nonpayable",
      "type": "function"
    },
    {
      "inputs": [],
      "name": "getListingFee",
      "outputs": [
        {
          "internalType": "uint256",
          "name": "",
          "type": "uint256"
        }
      ],
      "stateMutability": "view",
      "type": "function"
    },
    {
      "inputs": [
        {
          "internalType": "uint256",
          "name": "fee",
          "type": "uint256"
        }
      ],
      "name": "updateListingFee",
      "outputs": [],
      "stateMutability": "payable",
      "type": "function"
    }
  ],
  "bytecode": "0x60806040526611c37937e0800060045534801561001b57600080fd5b50600160008190555033600560006101000a81548173ffffffffffffffffffffffffffffffffffffffff021916908373ffffffffffffffffffffffffffffffffffffffff160217905550610b8f806100746000396000f3fe60806040526004361061003f5760003560e01c8063109d256c146100445780638e25c92914610081578063b8fe6abe146100be578063f79d91ae146100e9575b600080fd5b34801561005057600080fd5b5061006b60048036038101906100669190610646565b610105565b60405161007891906106bb565b60405180910390f35b34801561008d57600080fd5b506100a860048036038101906100a39190610702565b610264565b6040516100b591906106bb565b60405180910390f35b3480156100ca57600080fd5b506100d36103c6565b6040516100e091906106bb565b60405180910390f35b61010360048036038101906100fe9190610771565b6103d0565b005b60006002600054141561014d576040517f08c379a0000000000000000000000000000000000000000000000000000000008152600401610144906107fb565b60405180910390fd5b600260008190555061015f600161046a565b600061016b6001610480565b90503373ffffffffffffffffffffffffffffffffffffffff16817f7db120188170a6cbb156d5321e811da5e2556812b8a9fad4ae6a6835e62455236000336000806040516101bc949392919061088a565b60405180910390a38373ffffffffffffffffffffffffffffffffffffffff166348b3790d8233866040518463ffffffff1660e01b815260040161020193929190610946565b602060405180830381600087803b15801561021b57600080fd5b505af115801561022f573d6000803e3d6000fd5b505050506040513d601f19601f820116820180604052508101906102539190610999565b915050600160008190555092915050565b6000600260005414156102ac576040517f08c379a00000000000000000000000000000000000000000000000000000000081526004016102a3906107fb565b60405180910390fd5b60026000819055506102be600361046a565b60006102ca6003610480565b90503373ffffffffffffffffffffffffffffffffffffffff16817f79e63fce0729928c316075884eb2156facc713e85cd6b3c72f36133339bcce8d60003360008860405161031b94939291906109c6565b60405180910390a38473ffffffffffffffffffffffffffffffffffffffff166338da0a8a338684876040518563ffffffff1660e01b81526004016103629493929190610a68565b602060405180830381600087803b15801561037c57600080fd5b505af1158015610390573d6000803e3d6000fd5b505050506040513d601f19601f820116820180604052508101906103b49190610999565b91505060016000819055509392505050565b6000600454905090565b3373ffffffffffffffffffffffffffffffffffffffff16600560009054906101000a900473ffffffffffffffffffffffffffffffffffffffff1673ffffffffffffffffffffffffffffffffffffffff1614610460576040517f08c379a000000000000000000000000000000000000000000000000000000000815260040161045790610b39565b60405180910390fd5b8060048190555050565b6001816000016000828254019250508190555050565b600081600001549050919050565b6000604051905090565b600080fd5b600080fd5b600073ffffffffffffffffffffffffffffffffffffffff82169050919050565b60006104cd826104a2565b9050919050565b6104dd816104c2565b81146104e857600080fd5b50565b6000813590506104fa816104d4565b92915050565b600080fd5b600080fd5b6000601f19601f8301169050919050565b7f4e487b7100000000000000000000000000000000000000000000000000000000600052604160045260246000fd5b6105538261050a565b810181811067ffffffffffffffff821117156105725761057161051b565b5b80604052505050565b600061058561048e565b9050610591828261054a565b919050565b600067ffffffffffffffff8211156105b1576105b061051b565b5b6105ba8261050a565b9050602081019050919050565b82818337600083830152505050565b60006105e96105e484610596565b61057b565b90508281526020810184848401111561060557610604610505565b5b6106108482856105c7565b509392505050565b600082601f83011261062d5761062c610500565b5b813561063d8482602086016105d6565b91505092915050565b6000806040838503121561065d5761065c610498565b5b600061066b858286016104eb565b925050602083013567ffffffffffffffff81111561068c5761068b61049d565b5b61069885828601610618565b9150509250929050565b6000819050919050565b6106b5816106a2565b82525050565b60006020820190506106d060008301846106ac565b92915050565b6106df816106a2565b81146106ea57600080fd5b50565b6000813590506106fc816106d6565b92915050565b60008060006060848603121561071b5761071a610498565b5b6000610729868287016104eb565b935050602084013567ffffffffffffffff81111561074a5761074961049d565b5b61075686828701610618565b9250506040610767868287016106ed565b9150509250925092565b60006020828403121561078757610786610498565b5b6000610795848285016106ed565b91505092915050565b600082825260208201905092915050565b7f5265656e7472616e637947756172643a207265656e7472616e742063616c6c00600082015250565b60006107e5601f8361079e565b91506107f0826107af565b602082019050919050565b60006020820190508181036000830152610814816107d8565b9050919050565b610824816104c2565b82525050565b6000819050919050565b6000819050919050565b600061085961085461084f8461082a565b610834565b6106a2565b9050919050565b6108698161083e565b82525050565b60008115159050919050565b6108848161086f565b82525050565b600060808201905061089f600083018761081b565b6108ac602083018661081b565b6108b96040830185610860565b6108c6606083018461087b565b95945050505050565b600081519050919050565b60005b838110156108f85780820151818401526020810190506108dd565b83811115610907576000848401525b50505050565b6000610918826108cf565b610922818561079e565b93506109328185602086016108da565b61093b8161050a565b840191505092915050565b600060608201905061095b60008301866106ac565b610968602083018561081b565b818103604083015261097a818461090d565b9050949350505050565b600081519050610993816106d6565b92915050565b6000602082840312156109af576109ae610498565b5b60006109bd84828501610984565b91505092915050565b60006080820190506109db600083018761081b565b6109e8602083018661081b565b6109f56040830185610860565b610a0260608301846106ac565b95945050505050565b600082825260208201905092915050565b7f3078000000000000000000000000000000000000000000000000000000000000600082015250565b6000610a52600283610a0b565b9150610a5d82610a1c565b602082019050919050565b600060a082019050610a7d600083018761081b565b8181036020830152610a8f818661090d565b9050610a9e60408301856106ac565b610aab60608301846106ac565b8181036080830152610abc81610a45565b905095945050505050565b7f4552523a204f6e6c79206f776e65722063616e2075706461746520746865206c60008201527f697374696e67206665652e000000000000000000000000000000000000000000602082015250565b6000610b23602b8361079e565b9150610b2e82610ac7565b604082019050919050565b60006020820190508181036000830152610b5281610b16565b905091905056fea26469706673582212206be1903748fc03b6950cb4cb78ad48961dd8c05e58337e66204de0871b7d841264736f6c63430008090033",
  "linkReferences": {},
  "deployedLinkReferences": {}
}